{
  "_format": "hh-sol-artifact-1",
  "contractName": "Decom",
  "sourceName": "contracts/Decom.sol",
  "abi": [
    {
      "anonymous": false,
      "inputs": [
        {
          "indexed": true,
          "internalType": "uint256",
          "name": "id",
          "type": "uint256"
        },
        {
          "indexed": true,
          "internalType": "address",
          "name": "worker",
          "type": "address"
        }
      ],
      "name": "BidAccepted",
      "type": "event"
    },
    {
      "anonymous": false,
      "inputs": [
        {
          "indexed": true,
          "internalType": "uint256",
          "name": "id",
          "type": "uint256"
        }
      ],
      "name": "BountyCancelled",
      "type": "event"
    },
    {
      "anonymous": false,
      "inputs": [
        {
          "indexed": true,
          "internalType": "uint256",
          "name": "id",
          "type": "uint256"
        },
        {
          "indexed": true,
          "internalType": "address",
          "name": "worker",
          "type": "address"
        },
        {
          "indexed": false,
          "internalType": "uint256",
          "name": "amount",
          "type": "uint256"
        }
      ],
      "name": "BountyCompleted",
      "type": "event"
    },
    {
      "anonymous": false,
      "inputs": [
        {
          "indexed": true,
          "internalType": "uint256",
          "name": "id",
          "type": "uint256"
        },
        {
          "indexed": true,
          "internalType": "address",
          "name": "creator",
          "type": "address"
        },
        {
          "indexed": false,
          "internalType": "uint256",
          "name": "amount",
          "type": "uint256"
        },
        {
          "indexed": false,
          "internalType": "string",
          "name": "ipfsCid",
          "type": "string"
        }
      ],
      "name": "BountyCreated",
      "type": "event"
    },
    {
      "anonymous": false,
      "inputs": [
        {
          "indexed": true,
          "internalType": "uint256",
          "name": "id",
          "type": "uint256"
        },
        {
          "indexed": false,
          "internalType": "string",
          "name": "resultHash",
          "type": "string"
        }
      ],
      "name": "ResultSubmitted",
      "type": "event"
    },
    {
      "inputs": [
        {
          "internalType": "uint256",
          "name": "bountyId",
          "type": "uint256"
        },
        {
          "internalType": "address",
          "name": "worker",
          "type": "address"
        }
      ],
      "name": "acceptBid",
      "outputs": [],
      "stateMutability": "nonpayable",
      "type": "function"
    },
    {
      "inputs": [
        {
          "internalType": "uint256",
          "name": "",
          "type": "uint256"
        }
      ],
      "name": "bounties",
      "outputs": [
        {
          "internalType": "uint256",
          "name": "id",
          "type": "uint256"
        },
        {
          "internalType": "address",
          "name": "creator",
          "type": "address"
        },
        {
          "internalType": "string",
          "name": "ipfsCid",
          "type": "string"
        },
        {
          "internalType": "uint256",
          "name": "amount",
          "type": "uint256"
        },
        {
          "internalType": "enum Decom.BountyStatus",
          "name": "status",
          "type": "uint8"
        },
        {
          "internalType": "address",
          "name": "assignedWorker",
          "type": "address"
        },
        {
          "internalType": "string",
          "name": "resultHash",
          "type": "string"
        }
      ],
      "stateMutability": "view",
      "type": "function"
    },
    {
      "inputs": [
        {
          "internalType": "uint256",
          "name": "bountyId",
          "type": "uint256"
        }
      ],
      "name": "cancelBounty",
      "outputs": [],
      "stateMutability": "nonpayable",
      "type": "function"
    },
    {
      "inputs": [
        {
          "internalType": "string",
          "name": "ipfsCid",
          "type": "string"
        }
      ],
      "name": "createBounty",
      "outputs": [],
      "stateMutability": "payable",
      "type": "function"
    },
    {
      "inputs": [
        {
          "internalType": "uint256",
          "name": "bountyId",
          "type": "uint256"
        },
        {
          "internalType": "string",
          "name": "resultHash",
          "type": "string"
        }
      ],
      "name": "submitResult",
      "outputs": [],
      "stateMutability": "nonpayable",
      "type": "function"
    },
    {
      "inputs": [
        {
          "internalType": "uint256",
          "name": "bountyId",
          "type": "uint256"
        },
        {
          "internalType": "bool",
          "name": "success",
          "type": "bool"
        }
      ],
      "name": "verifyAndRelease",
      "outputs": [],
      "stateMutability": "nonpayable",
      "type": "function"
    }
  ],
  "bytecode": "0x608060405234801561001057600080fd5b50611a11806100206000396000f3fe6080604052600436106100555760003560e01c8063020686641461005a57806306868c4b146100835780638c0dd79a1461009f57806392ac58e0146100c8578063dc2f8744146100f1578063e5e5dff114610134575b600080fd5b34801561006657600080fd5b50610081600480360381019061007c9190610e32565b61015d565b005b61009d60048036038101906100989190610fb8565b610337565b005b3480156100ab57600080fd5b506100c660048036038101906100c19190611001565b61057f565b005b3480156100d457600080fd5b506100ef60048036038101906100ea9190611095565b6106ef565b005b3480156100fd57600080fd5b50610118600480360381019061011391906110d5565b6109fd565b60405161012b9796959493929190611216565b60405180910390f35b34801561014057600080fd5b5061015b600480360381019061015691906110d5565b610b9c565b005b60006001600084815260200190815260200160002090508060010160009054906101000a900473ffffffffffffffffffffffffffffffffffffffff1673ffffffffffffffffffffffffffffffffffffffff163373ffffffffffffffffffffffffffffffffffffffff1614610206576040517f08c379a00000000000000000000000000000000000000000000000000000000081526004016101fd906112df565b60405180910390fd5b6000600381111561021a5761021961119f565b5b8160040160009054906101000a900460ff16600381111561023e5761023d61119f565b5b1461027e576040517f08c379a00000000000000000000000000000000000000000000000000000000081526004016102759061134b565b60405180910390fd5b818160040160016101000a81548173ffffffffffffffffffffffffffffffffffffffff021916908373ffffffffffffffffffffffffffffffffffffffff16021790555060018160040160006101000a81548160ff021916908360038111156102e9576102e861119f565b5b02179055508173ffffffffffffffffffffffffffffffffffffffff16837f0b7e3c2d0983fdcbfa4fcb08da6f6d862e83ce066e7bbc783163da9753a829aa60405160405180910390a3505050565b6000341161037a576040517f08c379a0000000000000000000000000000000000000000000000000000000008152600401610371906113dd565b60405180910390fd5b600080600081548092919061038e9061142c565b9190505590506040518060e001604052808281526020013373ffffffffffffffffffffffffffffffffffffffff168152602001838152602001348152602001600060038111156103e1576103e061119f565b5b8152602001600073ffffffffffffffffffffffffffffffffffffffff16815260200160405180602001604052806000815250815250600160008381526020019081526020016000206000820151816000015560208201518160010160006101000a81548173ffffffffffffffffffffffffffffffffffffffff021916908373ffffffffffffffffffffffffffffffffffffffff160217905550604082015181600201908161048f9190611680565b506060820151816003015560808201518160040160006101000a81548160ff021916908360038111156104c5576104c461119f565b5b021790555060a08201518160040160016101000a81548173ffffffffffffffffffffffffffffffffffffffff021916908373ffffffffffffffffffffffffffffffffffffffff16021790555060c08201518160050190816105269190611680565b509050503373ffffffffffffffffffffffffffffffffffffffff16817faa830c985894057f0d100743defcad006f0a1abc40d080c9a23acc9a811068493485604051610573929190611752565b60405180910390a35050565b60006001600084815260200190815260200160002090508060040160019054906101000a900473ffffffffffffffffffffffffffffffffffffffff1673ffffffffffffffffffffffffffffffffffffffff163373ffffffffffffffffffffffffffffffffffffffff1614610628576040517f08c379a000000000000000000000000000000000000000000000000000000000815260040161061f906117ce565b60405180910390fd5b6001600381111561063c5761063b61119f565b5b8160040160009054906101000a900460ff1660038111156106605761065f61119f565b5b146106a0576040517f08c379a00000000000000000000000000000000000000000000000000000000081526004016106979061183a565b60405180910390fd5b818160050190816106b19190611680565b50827f4a24f05a82d55a33d232acaca2124e728d256ccba9173df82ab1231b38695ae4836040516106e2919061185a565b60405180910390a2505050565b60006001600084815260200190815260200160002090508060010160009054906101000a900473ffffffffffffffffffffffffffffffffffffffff1673ffffffffffffffffffffffffffffffffffffffff163373ffffffffffffffffffffffffffffffffffffffff1614610798576040517f08c379a000000000000000000000000000000000000000000000000000000000815260040161078f906118c8565b60405180910390fd5b600160038111156107ac576107ab61119f565b5b8160040160009054906101000a900460ff1660038111156107d0576107cf61119f565b5b14610810576040517f08c379a00000000000000000000000000000000000000000000000000000000081526004016108079061183a565b60405180910390fd5b811561092e5760028160040160006101000a81548160ff0219169083600381111561083e5761083d61119f565b5b02179055508060040160019054906101000a900473ffffffffffffffffffffffffffffffffffffffff1673ffffffffffffffffffffffffffffffffffffffff166108fc82600301549081150290604051600060405180830381858888f193505050501580156108b1573d6000803e3d6000fd5b508060040160019054906101000a900473ffffffffffffffffffffffffffffffffffffffff1673ffffffffffffffffffffffffffffffffffffffff16837f285d0f935b4d6592b80efc46cc3d9eb3e93e27fe245f0a6c2b5b9a9d04800ee7836003015460405161092191906118e8565b60405180910390a36109f8565b60038160040160006101000a81548160ff021916908360038111156109565761095561119f565b5b02179055508060010160009054906101000a900473ffffffffffffffffffffffffffffffffffffffff1673ffffffffffffffffffffffffffffffffffffffff166108fc82600301549081150290604051600060405180830381858888f193505050501580156109c9573d6000803e3d6000fd5b50827f92717314c0b0f9d632e1d46a0b8437778ff9daee1db8ec295f2bc0b57c4bcaac60405160405180910390a25b505050565b60016020528060005260406000206000915090508060000154908060010160009054906101000a900473ffffffffffffffffffffffffffffffffffffffff1690806002018054610a4c906114a3565b80601f0160208091040260200160405190810160405280929190818152602001828054610a78906114a3565b8015610ac55780601f10610a9a57610100808354040283529160200191610ac5565b820191906000526020600020905b815481529060010190602001808311610aa857829003601f168201915b5050505050908060030154908060040160009054906101000a900460ff16908060040160019054906101000a900473ffffffffffffffffffffffffffffffffffffffff1690806005018054610b19906114a3565b80601f0160208091040260200160405190810160405280929190818152602001828054610b45906114a3565b8015610b925780601f10610b6757610100808354040283529160200191610b92565b820191906000526020600020905b815481529060010190602001808311610b7557829003601f168201915b5050505050905087565b60006001600083815260200190815260200160002090508060010160009054906101000a900473ffffffffffffffffffffffffffffffffffffffff1673ffffffffffffffffffffffffffffffffffffffff163373ffffffffffffffffffffffffffffffffffffffff1614610c45576040517f08c379a0000000000000000000000000000000000000000000000000000000008152600401610c3c9061194f565b60405180910390fd5b60006003811115610c5957610c5861119f565b5b8160040160009054906101000a900460ff166003811115610c7d57610c7c61119f565b5b14610cbd576040517f08c379a0000000000000000000000000000000000000000000000000000000008152600401610cb4906119bb565b60405180910390fd5b60038160040160006101000a81548160ff02191690836003811115610ce557610ce461119f565b5b02179055508060010160009054906101000a900473ffffffffffffffffffffffffffffffffffffffff1673ffffffffffffffffffffffffffffffffffffffff166108fc82600301549081150290604051600060405180830381858888f19350505050158015610d58573d6000803e3d6000fd5b50817f92717314c0b0f9d632e1d46a0b8437778ff9daee1db8ec295f2bc0b57c4bcaac60405160405180910390a25050565b6000604051905090565b600080fd5b600080fd5b6000819050919050565b610db181610d9e565b8114610dbc57600080fd5b50565b600081359050610dce81610da8565b92915050565b600073ffffffffffffffffffffffffffffffffffffffff82169050919050565b6000610dff82610dd4565b9050919050565b610e0f81610df4565b8114610e1a57600080fd5b50565b600081359050610e2c81610e06565b92915050565b60008060408385031215610e4957610e48610d94565b5b6000610e5785828601610dbf565b9250506020610e6885828601610e1d565b9150509250929050565b600080fd5b600080fd5b6000601f19601f8301169050919050565b7f4e487b7100000000000000000000000000000000000000000000000000000000600052604160045260246000fd5b610ec582610e7c565b810181811067ffffffffffffffff82111715610ee457610ee3610e8d565b5b80604052505050565b6000610ef7610d8a565b9050610f038282610ebc565b919050565b600067ffffffffffffffff821115610f2357610f22610e8d565b5b610f2c82610e7c565b9050602081019050919050565b82818337600083830152505050565b6000610f5b610f5684610f08565b610eed565b905082815260208101848484011115610f7757610f76610e77565b5b610f82848285610f39565b509392505050565b600082601f830112610f9f57610f9e610e72565b5b8135610faf848260208601610f48565b91505092915050565b600060208284031215610fce57610fcd610d94565b5b600082013567ffffffffffffffff811115610fec57610feb610d99565b5b610ff884828501610f8a565b91505092915050565b6000806040838503121561101857611017610d94565b5b600061102685828601610dbf565b925050602083013567ffffffffffffffff81111561104757611046610d99565b5b61105385828601610f8a565b9150509250929050565b60008115159050919050565b6110728161105d565b811461107d57600080fd5b50565b60008135905061108f81611069565b92915050565b600080604083850312156110ac576110ab610d94565b5b60006110ba85828601610dbf565b92505060206110cb85828601611080565b9150509250929050565b6000602082840312156110eb576110ea610d94565b5b60006110f984828501610dbf565b91505092915050565b61110b81610d9e565b82525050565b61111a81610df4565b82525050565b600081519050919050565b600082825260208201905092915050565b60005b8381101561115a57808201518184015260208101905061113f565b60008484015250505050565b600061117182611120565b61117b818561112b565b935061118b81856020860161113c565b61119481610e7c565b840191505092915050565b7f4e487b7100000000000000000000000000000000000000000000000000000000600052602160045260246000fd5b600481106111df576111de61119f565b5b50565b60008190506111f0826111ce565b919050565b6000611200826111e2565b9050919050565b611210816111f5565b82525050565b600060e08201905061122b600083018a611102565b6112386020830189611111565b818103604083015261124a8188611166565b90506112596060830187611102565b6112666080830186611207565b61127360a0830185611111565b81810360c08301526112858184611166565b905098975050505050505050565b7f4f6e6c792063726561746f722063616e20616363657074206269647300000000600082015250565b60006112c9601c8361112b565b91506112d482611293565b602082019050919050565b600060208201905081810360008301526112f8816112bc565b9050919050565b7f426f756e7479206e6f742070656e64696e670000000000000000000000000000600082015250565b600061133560128361112b565b9150611340826112ff565b602082019050919050565b6000602082019050818103600083015261136481611328565b9050919050565b7f426f756e747920616d6f756e74206d757374206265206772656174657220746860008201527f616e203000000000000000000000000000000000000000000000000000000000602082015250565b60006113c760248361112b565b91506113d28261136b565b604082019050919050565b600060208201905081810360008301526113f6816113ba565b9050919050565b7f4e487b7100000000000000000000000000000000000000000000000000000000600052601160045260246000fd5b600061143782610d9e565b91507fffffffffffffffffffffffffffffffffffffffffffffffffffffffffffffffff8203611469576114686113fd565b5b600182019050919050565b7f4e487b7100000000000000000000000000000000000000000000000000000000600052602260045260246000fd5b600060028204905060018216806114bb57607f821691505b6020821081036114ce576114cd611474565b5b50919050565b60008190508160005260206000209050919050565b60006020601f8301049050919050565b600082821b905092915050565b6000600883026115367fffffffffffffffffffffffffffffffffffffffffffffffffffffffffffffffff826114f9565b61154086836114f9565b95508019841693508086168417925050509392505050565b6000819050919050565b600061157d61157861157384610d9e565b611558565b610d9e565b9050919050565b6000819050919050565b61159783611562565b6115ab6115a382611584565b848454611506565b825550505050565b600090565b6115c06115b3565b6115cb81848461158e565b505050565b5b818110156115ef576115e46000826115b8565b6001810190506115d1565b5050565b601f82111561163457611605816114d4565b61160e846114e9565b8101602085101561161d578190505b611631611629856114e9565b8301826115d0565b50505b505050565b600082821c905092915050565b600061165760001984600802611639565b1980831691505092915050565b60006116708383611646565b9150826002028217905092915050565b61168982611120565b67ffffffffffffffff8111156116a2576116a1610e8d565b5b6116ac82546114a3565b6116b78282856115f3565b600060209050601f8311600181146116ea57600084156116d8578287015190505b6116e28582611664565b86555061174a565b601f1984166116f8866114d4565b60005b82811015611720578489015182556001820191506020850194506020810190506116fb565b8683101561173d5784890151611739601f891682611646565b8355505b6001600288020188555050505b505050505050565b60006040820190506117676000830185611102565b81810360208301526117798184611166565b90509392505050565b7f4f6e6c792061737369676e656420776f726b65722063616e207375626d697400600082015250565b60006117b8601f8361112b565b91506117c382611782565b602082019050919050565b600060208201905081810360008301526117e7816117ab565b9050919050565b7f426f756e7479206e6f7420616374697665000000000000000000000000000000600082015250565b600061182460118361112b565b915061182f826117ee565b602082019050919050565b6000602082019050818103600083015261185381611817565b9050919050565b600060208201905081810360008301526118748184611166565b905092915050565b7f4f6e6c792063726561746f722063616e20766572696679000000000000000000600082015250565b60006118b260178361112b565b91506118bd8261187c565b602082019050919050565b600060208201905081810360008301526118e1816118a5565b9050919050565b60006020820190506118fd6000830184611102565b92915050565b7f4f6e6c792063726561746f722063616e2063616e63656c000000000000000000600082015250565b600061193960178361112b565b915061194482611903565b602082019050919050565b600060208201905081810360008301526119688161192c565b9050919050565b7f43616e6e6f742063616e63656c2061637469766520626f756e74790000000000600082015250565b60006119a5601b8361112b565b91506119b08261196f565b602082019050919050565b600060208201905081810360008301526119d481611998565b905091905056fea26469706673582212205d9460b85b8c6c0802efbe594a76916b0cde8ccefd6af639b0fbef9ff55d467a64736f6c63430008180033",
  "linkReferences": {},
  "deployedLinkReferences": {}
}